{
  "_format": "hh-sol-artifact-1",
  "contractName": "Supplychain",
  "sourceName": "contracts/Supplychain.sol",
  "abi": [
    {
      "inputs": [],
      "stateMutability": "nonpayable",
      "type": "constructor"
    },
    {
      "anonymous": false,
      "inputs": [
        {
          "indexed": false,
          "internalType": "uint256",
          "name": "drugId",
          "type": "uint256"
        }
      ],
      "name": "DrugApproved",
      "type": "event"
    },
    {
      "anonymous": false,
      "inputs": [
        {
          "indexed": false,
          "internalType": "uint256",
          "name": "drugId",
          "type": "uint256"
        }
      ],
      "name": "DrugFormulated",
      "type": "event"
    },
    {
      "anonymous": false,
      "inputs": [
        {
          "indexed": false,
          "internalType": "uint256",
          "name": "LotId",
          "type": "uint256"
        }
      ],
      "name": "LotManufactured",
      "type": "event"
    },
    {
      "anonymous": false,
      "inputs": [
        {
          "indexed": false,
          "internalType": "uint256",
          "name": "LotId",
          "type": "uint256"
        }
      ],
      "name": "LotReceived",
      "type": "event"
    },
    {
      "anonymous": false,
      "inputs": [
        {
          "indexed": false,
          "internalType": "uint256",
          "name": "LotId",
          "type": "uint256"
        }
      ],
      "name": "LotShipped",
      "type": "event"
    },
    {
      "anonymous": false,
      "inputs": [
        {
          "indexed": false,
          "internalType": "uint256",
          "name": "LotId",
          "type": "uint256"
        }
      ],
      "name": "MedicineBought",
      "type": "event"
    },
    {
      "inputs": [
        {
          "internalType": "address",
          "name": "_distributor",
          "type": "address"
        }
      ],
      "name": "addDistributor",
      "outputs": [],
      "stateMutability": "nonpayable",
      "type": "function"
    },
    {
      "inputs": [
        {
          "internalType": "address",
          "name": "_manufacturer",
          "type": "address"
        }
      ],
      "name": "addManufacturer",
      "outputs": [],
      "stateMutability": "nonpayable",
      "type": "function"
    },
    {
      "inputs": [
        {
          "internalType": "address",
          "name": "_patient",
          "type": "address"
        }
      ],
      "name": "addPatient",
      "outputs": [],
      "stateMutability": "nonpayable",
      "type": "function"
    },
    {
      "inputs": [
        {
          "internalType": "address",
          "name": "_pharmacy",
          "type": "address"
        }
      ],
      "name": "addPharmacy",
      "outputs": [],
      "stateMutability": "nonpayable",
      "type": "function"
    },
    {
      "inputs": [
        {
          "internalType": "uint256",
          "name": "_drugId",
          "type": "uint256"
        }
      ],
      "name": "approveDrug",
      "outputs": [],
      "stateMutability": "nonpayable",
      "type": "function"
    },
    {
      "inputs": [
        {
          "internalType": "uint256",
          "name": "_lotId",
          "type": "uint256"
        }
      ],
      "name": "buyMedicine",
      "outputs": [],
      "stateMutability": "nonpayable",
      "type": "function"
    },
    {
      "inputs": [
        {
          "internalType": "uint256",
          "name": "",
          "type": "uint256"
        }
      ],
      "name": "drugIds",
      "outputs": [
        {
          "internalType": "uint256",
          "name": "",
          "type": "uint256"
        }
      ],
      "stateMutability": "view",
      "type": "function"
    },
    {
      "inputs": [
        {
          "internalType": "uint256",
          "name": "",
          "type": "uint256"
        },
        {
          "internalType": "uint256",
          "name": "",
          "type": "uint256"
        }
      ],
      "name": "drugIngredientCompositions",
      "outputs": [
        {
          "internalType": "string",
          "name": "ingredient",
          "type": "string"
        },
        {
          "internalType": "uint256",
          "name": "composition",
          "type": "uint256"
        }
      ],
      "stateMutability": "view",
      "type": "function"
    },
    {
      "inputs": [
        {
          "internalType": "uint256",
          "name": "",
          "type": "uint256"
        }
      ],
      "name": "drugs",
      "outputs": [
        {
          "internalType": "uint256",
          "name": "id",
          "type": "uint256"
        },
        {
          "internalType": "string",
          "name": "name",
          "type": "string"
        },
        {
          "internalType": "enum Supplychain.DrugState",
          "name": "state",
          "type": "uint8"
        }
      ],
      "stateMutability": "view",
      "type": "function"
    },
    {
      "inputs": [
        {
          "internalType": "string",
          "name": "_name",
          "type": "string"
        },
        {
          "components": [
            {
              "internalType": "string",
              "name": "ingredient",
              "type": "string"
            },
            {
              "internalType": "uint256",
              "name": "composition",
              "type": "uint256"
            }
          ],
          "internalType": "struct Supplychain.ingredientToComposition[]",
          "name": "_ingredients",
          "type": "tuple[]"
        }
      ],
      "name": "formulateDrug",
      "outputs": [
        {
          "internalType": "uint256",
          "name": "",
          "type": "uint256"
        }
      ],
      "stateMutability": "nonpayable",
      "type": "function"
    },
    {
      "inputs": [
        {
          "internalType": "uint256",
          "name": "_drugId",
          "type": "uint256"
        }
      ],
      "name": "getDrugById",
      "outputs": [
        {
          "components": [
            {
              "internalType": "uint256",
              "name": "id",
              "type": "uint256"
            },
            {
              "internalType": "string",
              "name": "name",
              "type": "string"
            },
            {
              "internalType": "enum Supplychain.DrugState",
              "name": "state",
              "type": "uint8"
            }
          ],
          "internalType": "struct Supplychain.Drug",
          "name": "",
          "type": "tuple"
        }
      ],
      "stateMutability": "view",
      "type": "function"
    },
    {
      "inputs": [],
      "name": "getDrugIds",
      "outputs": [
        {
          "internalType": "uint256[]",
          "name": "",
          "type": "uint256[]"
        }
      ],
      "stateMutability": "view",
      "type": "function"
    },
    {
      "inputs": [
        {
          "internalType": "uint256",
          "name": "_lotId",
          "type": "uint256"
        }
      ],
      "name": "getLotById",
      "outputs": [
        {
          "components": [
            {
              "internalType": "uint256",
              "name": "id",
              "type": "uint256"
            },
            {
              "internalType": "uint256",
              "name": "drugId",
              "type": "uint256"
            },
            {
              "internalType": "string",
              "name": "name",
              "type": "string"
            },
            {
              "internalType": "uint256",
              "name": "quantity",
              "type": "uint256"
            },
            {
              "internalType": "address",
              "name": "manufacturer",
              "type": "address"
            },
            {
              "internalType": "address",
              "name": "distributor",
              "type": "address"
            },
            {
              "internalType": "address",
              "name": "pharmacy",
              "type": "address"
            },
            {
              "internalType": "enum Supplychain.LotState",
              "name": "state",
              "type": "uint8"
            }
          ],
          "internalType": "struct Supplychain.Lot",
          "name": "",
          "type": "tuple"
        }
      ],
      "stateMutability": "view",
      "type": "function"
    },
    {
      "inputs": [],
      "name": "getLotIds",
      "outputs": [
        {
          "internalType": "uint256[]",
          "name": "",
          "type": "uint256[]"
        }
      ],
      "stateMutability": "view",
      "type": "function"
    },
    {
      "inputs": [
        {
          "internalType": "address",
          "name": "",
          "type": "address"
        }
      ],
      "name": "isDistributor",
      "outputs": [
        {
          "internalType": "bool",
          "name": "",
          "type": "bool"
        }
      ],
      "stateMutability": "view",
      "type": "function"
    },
    {
      "inputs": [
        {
          "internalType": "address",
          "name": "",
          "type": "address"
        }
      ],
      "name": "isManufacturer",
      "outputs": [
        {
          "internalType": "bool",
          "name": "",
          "type": "bool"
        }
      ],
      "stateMutability": "view",
      "type": "function"
    },
    {
      "inputs": [
        {
          "internalType": "address",
          "name": "",
          "type": "address"
        }
      ],
      "name": "isPatient",
      "outputs": [
        {
          "internalType": "bool",
          "name": "",
          "type": "bool"
        }
      ],
      "stateMutability": "view",
      "type": "function"
    },
    {
      "inputs": [
        {
          "internalType": "address",
          "name": "",
          "type": "address"
        }
      ],
      "name": "isPharmacy",
      "outputs": [
        {
          "internalType": "bool",
          "name": "",
          "type": "bool"
        }
      ],
      "stateMutability": "view",
      "type": "function"
    },
    {
      "inputs": [
        {
          "internalType": "uint256",
          "name": "",
          "type": "uint256"
        }
      ],
      "name": "lotIds",
      "outputs": [
        {
          "internalType": "uint256",
          "name": "",
          "type": "uint256"
        }
      ],
      "stateMutability": "view",
      "type": "function"
    },
    {
      "inputs": [
        {
          "internalType": "uint256",
          "name": "",
          "type": "uint256"
        },
        {
          "internalType": "uint256",
          "name": "",
          "type": "uint256"
        }
      ],
      "name": "lotToPatient",
      "outputs": [
        {
          "internalType": "address",
          "name": "",
          "type": "address"
        }
      ],
      "stateMutability": "view",
      "type": "function"
    },
    {
      "inputs": [
        {
          "internalType": "uint256",
          "name": "",
          "type": "uint256"
        }
      ],
      "name": "lots",
      "outputs": [
        {
          "internalType": "uint256",
          "name": "id",
          "type": "uint256"
        },
        {
          "internalType": "uint256",
          "name": "drugId",
          "type": "uint256"
        },
        {
          "internalType": "string",
          "name": "name",
          "type": "string"
        },
        {
          "internalType": "uint256",
          "name": "quantity",
          "type": "uint256"
        },
        {
          "internalType": "address",
          "name": "manufacturer",
          "type": "address"
        },
        {
          "internalType": "address",
          "name": "distributor",
          "type": "address"
        },
        {
          "internalType": "address",
          "name": "pharmacy",
          "type": "address"
        },
        {
          "internalType": "enum Supplychain.LotState",
          "name": "state",
          "type": "uint8"
        }
      ],
      "stateMutability": "view",
      "type": "function"
    },
    {
      "inputs": [
        {
          "internalType": "string",
          "name": "_name",
          "type": "string"
        },
        {
          "internalType": "uint256",
          "name": "_quantity",
          "type": "uint256"
        },
        {
          "internalType": "uint256",
          "name": "_drugId",
          "type": "uint256"
        }
      ],
      "name": "manufacturLot",
      "outputs": [
        {
          "internalType": "uint256",
          "name": "",
          "type": "uint256"
        }
      ],
      "stateMutability": "nonpayable",
      "type": "function"
    },
    {
      "inputs": [],
      "name": "owner",
      "outputs": [
        {
          "internalType": "address",
          "name": "",
          "type": "address"
        }
      ],
      "stateMutability": "view",
      "type": "function"
    },
    {
      "inputs": [
        {
          "internalType": "uint256",
          "name": "_lotId",
          "type": "uint256"
        }
      ],
      "name": "receiveDrug",
      "outputs": [],
      "stateMutability": "nonpayable",
      "type": "function"
    },
    {
      "inputs": [
        {
          "internalType": "uint256",
          "name": "_lotId",
          "type": "uint256"
        }
      ],
      "name": "shipLot",
      "outputs": [],
      "stateMutability": "nonpayable",
      "type": "function"
    }
  ],
  "bytecode": "0x608060405234801561001057600080fd5b50336000806101000a81548173ffffffffffffffffffffffffffffffffffffffff021916908373ffffffffffffffffffffffffffffffffffffffff16021790555061341a806100606000396000f3fe608060405234801561001057600080fd5b50600436106101735760003560e01c80638da5cb5b116100de578063dfb0fda311610097578063f1648e8411610071578063f1648e84146104a7578063f8b9c199146104de578063faac9e791461050e578063fca5e61e1461052a57610173565b8063dfb0fda314610417578063f0dda04714610447578063f12144221461047757610173565b80638da5cb5b1461031d5780638f0c86fa1461033b5780638f9c79ed1461036b578063acfed6221461039b578063afd675f8146103cb578063b6387144146103e757610173565b806348a615dd1161013057806348a615dd1461024a5780635f8a5afa1461027b5780636b17a050146102975780636d263ceb146102c75780637250e224146102e3578063811840c4146102ff57610173565b80630ea09486146101785780631395d0f21461019457806317d4a491146101b057806325a78a6c146101e05780632a1f82de146101fe57806343587a901461021a575b600080fd5b610192600480360381019061018d919061254b565b61055c565b005b6101ae60048036038101906101a9919061254b565b6107b2565b005b6101ca60048036038101906101c5919061244f565b6108df565b6040516101d79190612d05565b60405180910390f35b6101e86108ff565b6040516101f59190612ce3565b60405180910390f35b6102186004803603810190610213919061254b565b610957565b005b610234600480360381019061022f919061254b565b610bad565b6040516102419190612ef4565b60405180910390f35b610264600480360381019061025f9190612574565b610bd1565b604051610272929190612d20565b60405180910390f35b6102956004803603810190610290919061244f565b610c9a565b005b6102b160048036038101906102ac9190612574565b610d82565b6040516102be9190612cc8565b60405180910390f35b6102e160048036038101906102dc919061244f565b610dd0565b005b6102fd60048036038101906102f8919061244f565b610eb9565b005b610307610fa2565b6040516103149190612ce3565b60405180910390f35b610325610ffa565b6040516103329190612cc8565b60405180910390f35b6103556004803603810190610350919061244f565b61101e565b6040516103629190612d05565b60405180910390f35b6103856004803603810190610380919061244f565b61103e565b6040516103929190612d05565b60405180910390f35b6103b560048036038101906103b0919061254b565b61105e565b6040516103c29190612eb0565b60405180910390f35b6103e560048036038101906103e0919061244f565b6111ae565b005b61040160048036038101906103fc919061254b565b611297565b60405161040e9190612ef4565b60405180910390f35b610431600480360381019061042c919061244f565b6112bb565b60405161043e9190612d05565b60405180910390f35b610461600480360381019061045c9190612478565b6112db565b60405161046e9190612ef4565b60405180910390f35b610491600480360381019061048c91906124e4565b61158c565b60405161049e9190612ef4565b60405180910390f35b6104c160048036038101906104bc919061254b565b6119dc565b6040516104d5989796959493929190612f4d565b60405180910390f35b6104f860048036038101906104f3919061254b565b611b19565b6040516105059190612ed2565b60405180910390f35b6105286004803603810190610523919061254b565b611d80565b005b610544600480360381019061053f919061254b565b612014565b60405161055393929190612f0f565b60405180910390f35b600360003373ffffffffffffffffffffffffffffffffffffffff1673ffffffffffffffffffffffffffffffffffffffff16815260200190815260200160002060009054906101000a900460ff166105e8576040517f08c379a00000000000000000000000000000000000000000000000000000000081526004016105df90612dd0565b60405180910390fd5b60016002811115610622577f4e487b7100000000000000000000000000000000000000000000000000000000600052602160045260246000fd5b6006600083815260200190815260200160002060060160149054906101000a900460ff16600281111561067e577f4e487b7100000000000000000000000000000000000000000000000000000000600052602160045260246000fd5b146106be576040517f08c379a00000000000000000000000000000000000000000000000000000000081526004016106b590612e30565b60405180910390fd5b336006600083815260200190815260200160002060060160006101000a81548173ffffffffffffffffffffffffffffffffffffffff021916908373ffffffffffffffffffffffffffffffffffffffff16021790555060026006600083815260200190815260200160002060060160146101000a81548160ff02191690836002811115610773577f4e487b7100000000000000000000000000000000000000000000000000000000600052602160045260246000fd5b02179055507f0dd96a26094e249636a1d2ccfeafa4d024906ebf42805239b74eab17086fdaf4816040516107a79190612ef4565b60405180910390a150565b60008054906101000a900473ffffffffffffffffffffffffffffffffffffffff1673ffffffffffffffffffffffffffffffffffffffff163373ffffffffffffffffffffffffffffffffffffffff1614610840576040517f08c379a000000000000000000000000000000000000000000000000000000000815260040161083790612d90565b60405180910390fd5b60016005600083815260200190815260200160002060020160006101000a81548160ff021916908360018111156108a0577f4e487b7100000000000000000000000000000000000000000000000000000000600052602160045260246000fd5b02179055507f3cd9318f519e01c3eb9bfd966667d8fd5b23b17e7df866edcc3523fc0420d654816040516108d49190612ef4565b60405180910390a150565b60016020528060005260406000206000915054906101000a900460ff1681565b6060600a80548060200260200160405190810160405280929190818152602001828054801561094d57602002820191906000526020600020905b815481526020019060010190808311610939575b5050505050905090565b600260003373ffffffffffffffffffffffffffffffffffffffff1673ffffffffffffffffffffffffffffffffffffffff16815260200190815260200160002060009054906101000a900460ff166109e3576040517f08c379a00000000000000000000000000000000000000000000000000000000081526004016109da90612df0565b60405180910390fd5b60006002811115610a1d577f4e487b7100000000000000000000000000000000000000000000000000000000600052602160045260246000fd5b6006600083815260200190815260200160002060060160149054906101000a900460ff166002811115610a79577f4e487b7100000000000000000000000000000000000000000000000000000000600052602160045260246000fd5b14610ab9576040517f08c379a0000000000000000000000000000000000000000000000000000000008152600401610ab090612d50565b60405180910390fd5b336006600083815260200190815260200160002060050160006101000a81548173ffffffffffffffffffffffffffffffffffffffff021916908373ffffffffffffffffffffffffffffffffffffffff16021790555060016006600083815260200190815260200160002060060160146101000a81548160ff02191690836002811115610b6e577f4e487b7100000000000000000000000000000000000000000000000000000000600052602160045260246000fd5b02179055507f899361d7cfbf08fdb0112b190280906b4c1accdc6319314a07eb3c05dbb1ec2b81604051610ba29190612ef4565b60405180910390a150565b600a8181548110610bbd57600080fd5b906000526020600020016000915090505481565b60086020528160005260406000208181548110610bed57600080fd5b906000526020600020906002020160009150915050806000018054610c1190613201565b80601f0160208091040260200160405190810160405280929190818152602001828054610c3d90613201565b8015610c8a5780601f10610c5f57610100808354040283529160200191610c8a565b820191906000526020600020905b815481529060010190602001808311610c6d57829003601f168201915b5050505050908060010154905082565b60008054906101000a900473ffffffffffffffffffffffffffffffffffffffff1673ffffffffffffffffffffffffffffffffffffffff163373ffffffffffffffffffffffffffffffffffffffff1614610d28576040517f08c379a0000000000000000000000000000000000000000000000000000000008152600401610d1f90612d90565b60405180910390fd5b60018060008373ffffffffffffffffffffffffffffffffffffffff1673ffffffffffffffffffffffffffffffffffffffff16815260200190815260200160002060006101000a81548160ff02191690831515021790555050565b60076020528160005260406000208181548110610d9e57600080fd5b906000526020600020016000915091509054906101000a900473ffffffffffffffffffffffffffffffffffffffff1681565b60008054906101000a900473ffffffffffffffffffffffffffffffffffffffff1673ffffffffffffffffffffffffffffffffffffffff163373ffffffffffffffffffffffffffffffffffffffff1614610e5e576040517f08c379a0000000000000000000000000000000000000000000000000000000008152600401610e5590612d90565b60405180910390fd5b6001600460008373ffffffffffffffffffffffffffffffffffffffff1673ffffffffffffffffffffffffffffffffffffffff16815260200190815260200160002060006101000a81548160ff02191690831515021790555050565b60008054906101000a900473ffffffffffffffffffffffffffffffffffffffff1673ffffffffffffffffffffffffffffffffffffffff163373ffffffffffffffffffffffffffffffffffffffff1614610f47576040517f08c379a0000000000000000000000000000000000000000000000000000000008152600401610f3e90612d90565b60405180910390fd5b6001600260008373ffffffffffffffffffffffffffffffffffffffff1673ffffffffffffffffffffffffffffffffffffffff16815260200190815260200160002060006101000a81548160ff02191690831515021790555050565b60606009805480602002602001604051908101604052809291908181526020018280548015610ff057602002820191906000526020600020905b815481526020019060010190808311610fdc575b5050505050905090565b60008054906101000a900473ffffffffffffffffffffffffffffffffffffffff1681565b60026020528060005260406000206000915054906101000a900460ff1681565b60046020528060005260406000206000915054906101000a900460ff1681565b611066612117565b600560008381526020019081526020016000206040518060600160405290816000820154815260200160018201805461109e90613201565b80601f01602080910402602001604051908101604052809291908181526020018280546110ca90613201565b80156111175780601f106110ec57610100808354040283529160200191611117565b820191906000526020600020905b8154815290600101906020018083116110fa57829003601f168201915b505050505081526020016002820160009054906101000a900460ff16600181111561116b577f4e487b7100000000000000000000000000000000000000000000000000000000600052602160045260246000fd5b60018111156111a3577f4e487b7100000000000000000000000000000000000000000000000000000000600052602160045260246000fd5b815250509050919050565b60008054906101000a900473ffffffffffffffffffffffffffffffffffffffff1673ffffffffffffffffffffffffffffffffffffffff163373ffffffffffffffffffffffffffffffffffffffff161461123c576040517f08c379a000000000000000000000000000000000000000000000000000000000815260040161123390612d90565b60405180910390fd5b6001600360008373ffffffffffffffffffffffffffffffffffffffff1673ffffffffffffffffffffffffffffffffffffffff16815260200190815260200160002060006101000a81548160ff02191690831515021790555050565b600981815481106112a757600080fd5b906000526020600020016000915090505481565b60036020528060005260406000206000915054906101000a900460ff1681565b6000600160003373ffffffffffffffffffffffffffffffffffffffff1673ffffffffffffffffffffffffffffffffffffffff16815260200190815260200160002060009054906101000a900460ff16611369576040517f08c379a000000000000000000000000000000000000000000000000000000000815260040161136090612e50565b60405180910390fd5b60006113736120d3565b9050600981908060018154018082558091505060019003906000526020600020016000909190919091505560005b835181101561146357600860008381526020019081526020016000208482815181106113f6577f4e487b7100000000000000000000000000000000000000000000000000000000600052603260045260246000fd5b602002602001015190806001815401808255809150506001900390600052602060002090600202016000909190919091506000820151816000019080519060200190611443929190612170565b50602082015181600101555050808061145b90613233565b9150506113a1565b506040518060600160405280828152602001858152602001600060018111156114b5577f4e487b7100000000000000000000000000000000000000000000000000000000600052602160045260246000fd5b815250600560008381526020019081526020016000206000820151816000015560208201518160010190805190602001906114f1929190612170565b5060408201518160020160006101000a81548160ff02191690836001811115611543577f4e487b7100000000000000000000000000000000000000000000000000000000600052602160045260246000fd5b02179055509050507feb4a4a99cb1d0f4851dcc649f5ec67304c420e4848e402fc6ca634c0bbe3a23e8160405161157a9190612ef4565b60405180910390a18091505092915050565b6000600160003373ffffffffffffffffffffffffffffffffffffffff1673ffffffffffffffffffffffffffffffffffffffff16815260200190815260200160002060009054906101000a900460ff1661161a576040517f08c379a000000000000000000000000000000000000000000000000000000000815260040161161190612e50565b60405180910390fd5b600180811115611653577f4e487b7100000000000000000000000000000000000000000000000000000000600052602160045260246000fd5b6005600084815260200190815260200160002060020160009054906101000a900460ff1660018111156116af577f4e487b7100000000000000000000000000000000000000000000000000000000600052602160045260246000fd5b146116ef576040517f08c379a00000000000000000000000000000000000000000000000000000000081526004016116e690612e10565b60405180910390fd5b60008311611732576040517f08c379a000000000000000000000000000000000000000000000000000000000815260040161172990612db0565b60405180910390fd5b600061173c6120d3565b9050600a8190806001815401808255809150506001900390600052602060002001600090919091909150556040518061010001604052808281526020018481526020018681526020018581526020013373ffffffffffffffffffffffffffffffffffffffff168152602001600073ffffffffffffffffffffffffffffffffffffffff168152602001600073ffffffffffffffffffffffffffffffffffffffff1681526020016000600281111561181b577f4e487b7100000000000000000000000000000000000000000000000000000000600052602160045260246000fd5b8152506006600083815260200190815260200160002060008201518160000155602082015181600101556040820151816002019080519060200190611861929190612170565b506060820151816003015560808201518160040160006101000a81548173ffffffffffffffffffffffffffffffffffffffff021916908373ffffffffffffffffffffffffffffffffffffffff16021790555060a08201518160050160006101000a81548173ffffffffffffffffffffffffffffffffffffffff021916908373ffffffffffffffffffffffffffffffffffffffff16021790555060c08201518160060160006101000a81548173ffffffffffffffffffffffffffffffffffffffff021916908373ffffffffffffffffffffffffffffffffffffffff16021790555060e08201518160060160146101000a81548160ff02191690836002811115611992577f4e487b7100000000000000000000000000000000000000000000000000000000600052602160045260246000fd5b02179055509050507f1d035523c89c8ea6b0debf45b6c44e4669412634e24cbbb093fcc01b8227821a816040516119c99190612ef4565b60405180910390a1809150509392505050565b6006602052806000526040600020600091509050806000015490806001015490806002018054611a0b90613201565b80601f0160208091040260200160405190810160405280929190818152602001828054611a3790613201565b8015611a845780601f10611a5957610100808354040283529160200191611a84565b820191906000526020600020905b815481529060010190602001808311611a6757829003601f168201915b5050505050908060030154908060040160009054906101000a900473ffffffffffffffffffffffffffffffffffffffff16908060050160009054906101000a900473ffffffffffffffffffffffffffffffffffffffff16908060060160009054906101000a900473ffffffffffffffffffffffffffffffffffffffff16908060060160149054906101000a900460ff16905088565b611b216121f6565b60066000838152602001908152602001600020604051806101000160405290816000820154815260200160018201548152602001600282018054611b6490613201565b80601f0160208091040260200160405190810160405280929190818152602001828054611b9090613201565b8015611bdd5780601f10611bb257610100808354040283529160200191611bdd565b820191906000526020600020905b815481529060010190602001808311611bc057829003601f168201915b50505050508152602001600382015481526020016004820160009054906101000a900473ffffffffffffffffffffffffffffffffffffffff1673ffffffffffffffffffffffffffffffffffffffff1673ffffffffffffffffffffffffffffffffffffffff1681526020016005820160009054906101000a900473ffffffffffffffffffffffffffffffffffffffff1673ffffffffffffffffffffffffffffffffffffffff1673ffffffffffffffffffffffffffffffffffffffff1681526020016006820160009054906101000a900473ffffffffffffffffffffffffffffffffffffffff1673ffffffffffffffffffffffffffffffffffffffff1673ffffffffffffffffffffffffffffffffffffffff1681526020016006820160149054906101000a900460ff166002811115611d3d577f4e487b7100000000000000000000000000000000000000000000000000000000600052602160045260246000fd5b6002811115611d75577f4e487b7100000000000000000000000000000000000000000000000000000000600052602160045260246000fd5b815250509050919050565b600460003373ffffffffffffffffffffffffffffffffffffffff1673ffffffffffffffffffffffffffffffffffffffff16815260200190815260200160002060009054906101000a900460ff16611e0c576040517f08c379a0000000000000000000000000000000000000000000000000000000008152600401611e0390612d70565b60405180910390fd5b600280811115611e45577f4e487b7100000000000000000000000000000000000000000000000000000000600052602160045260246000fd5b6006600083815260200190815260200160002060060160149054906101000a900460ff166002811115611ea1577f4e487b7100000000000000000000000000000000000000000000000000000000600052602160045260246000fd5b14611ee1576040517f08c379a0000000000000000000000000000000000000000000000000000000008152600401611ed890612e90565b60405180910390fd5b6000600660008381526020019081526020016000206003015411611f3a576040517f08c379a0000000000000000000000000000000000000000000000000000000008152600401611f3190612e70565b60405180910390fd5b600660008281526020019081526020016000206003016000815480929190611f61906131d7565b919050555060076000828152602001908152602001600020339080600181540180825580915050600190039060005260206000200160009091909190916101000a81548173ffffffffffffffffffffffffffffffffffffffff021916908373ffffffffffffffffffffffffffffffffffffffff1602179055507f141393aa1f1279f2efe3744262f46f12bc4adfb250c4c5b0368eef7170c53b5f816040516120099190612ef4565b60405180910390a150565b600560205280600052604060002060009150905080600001549080600101805461203d90613201565b80601f016020809104026020016040519081016040528092919081815260200182805461206990613201565b80156120b65780601f1061208b576101008083540402835291602001916120b6565b820191906000526020600020905b81548152906001019060200180831161209957829003601f168201915b5050505050908060020160009054906101000a900460ff16905083565b60004233446001436120e591906130c5565b406040516020016120f99493929190612c7a565b6040516020818303038152906040528051906020012060001c905090565b604051806060016040528060008152602001606081526020016000600181111561216a577f4e487b7100000000000000000000000000000000000000000000000000000000600052602160045260246000fd5b81525090565b82805461217c90613201565b90600052602060002090601f01602090048101928261219e57600085556121e5565b82601f106121b757805160ff19168380011785556121e5565b828001600101855582156121e5579182015b828111156121e45782518255916020019190600101906121c9565b5b5090506121f291906122b5565b5090565b60405180610100016040528060008152602001600081526020016060815260200160008152602001600073ffffffffffffffffffffffffffffffffffffffff168152602001600073ffffffffffffffffffffffffffffffffffffffff168152602001600073ffffffffffffffffffffffffffffffffffffffff168152602001600060028111156122af577f4e487b7100000000000000000000000000000000000000000000000000000000600052602160045260246000fd5b81525090565b5b808211156122ce5760008160009055506001016122b6565b5090565b60006122e56122e084613003565b612fd2565b9050808382526020820190508260005b85811015612325578135850161230b88826123d6565b8452602084019350602083019250506001810190506122f5565b5050509392505050565b600061234261233d8461302f565b612fd2565b90508281526020810184848401111561235a57600080fd5b612365848285613195565b509392505050565b60008135905061237c816133b6565b92915050565b600082601f83011261239357600080fd5b81356123a38482602086016122d2565b91505092915050565b600082601f8301126123bd57600080fd5b81356123cd84826020860161232f565b91505092915050565b6000604082840312156123e857600080fd5b6123f26040612fd2565b9050600082013567ffffffffffffffff81111561240e57600080fd5b61241a848285016123ac565b600083015250602061242e8482850161243a565b60208301525092915050565b600081359050612449816133cd565b92915050565b60006020828403121561246157600080fd5b600061246f8482850161236d565b91505092915050565b6000806040838503121561248b57600080fd5b600083013567ffffffffffffffff8111156124a557600080fd5b6124b1858286016123ac565b925050602083013567ffffffffffffffff8111156124ce57600080fd5b6124da85828601612382565b9150509250929050565b6000806000606084860312156124f957600080fd5b600084013567ffffffffffffffff81111561251357600080fd5b61251f868287016123ac565b93505060206125308682870161243a565b92505060406125418682870161243a565b9150509250925092565b60006020828403121561255d57600080fd5b600061256b8482850161243a565b91505092915050565b6000806040838503121561258757600080fd5b60006125958582860161243a565b92505060206125a68582860161243a565b9150509250929050565b60006125bc8383612c45565b60208301905092915050565b6125d1816130f9565b82525050565b6125e0816130f9565b82525050565b6125f76125f2826130f9565b61327c565b82525050565b60006126088261306f565b6126128185613092565b935061261d8361305f565b8060005b8381101561264e57815161263588826125b0565b975061264083613085565b925050600181019050612621565b5085935050505092915050565b6126648161310b565b82525050565b61267b61267682613117565b61328e565b82525050565b61268a81613171565b82525050565b61269981613171565b82525050565b6126a881613183565b82525050565b6126b781613183565b82525050565b60006126c88261307a565b6126d281856130a3565b93506126e28185602086016131a4565b6126eb81613370565b840191505092915050565b60006127018261307a565b61270b81856130b4565b935061271b8185602086016131a4565b61272481613370565b840191505092915050565b600061273c6031836130b4565b91507f4472756720686173206e6f74206265656e2063726561746564206f7220616c7260008301527f65616479206265656e20736869707065640000000000000000000000000000006020830152604082019050919050565b60006127a2602e836130b4565b91507f4f6e6c7920617070726f7665642070617469656e74732063616e20706572666f60008301527f726d207468697320616374696f6e0000000000000000000000000000000000006020830152604082019050919050565b6000612808602b836130b4565b91507f4f6e6c7920636f6e7472616374206f776e65722063616e20706572666f726d2060008301527f7468697320616374696f6e0000000000000000000000000000000000000000006020830152604082019050919050565b600061286e6024836130b4565b91507f5175616e746974792073686f756c642062652067726561746572207468616e2060008301527f7a65726f000000000000000000000000000000000000000000000000000000006020830152604082019050919050565b60006128d46030836130b4565b91507f4f6e6c7920617070726f76656420706861726d61636965732063616e2070657260008301527f666f726d207468697320616374696f6e000000000000000000000000000000006020830152604082019050919050565b600061293a6032836130b4565b91507f4f6e6c7920617070726f766564206469737472696275746f72732063616e207060008301527f6572666f726d207468697320616374696f6e00000000000000000000000000006020830152604082019050919050565b60006129a0602a836130b4565b91507f44727567206d75737420626520617070726f766564206265666f7265206d616e60008301527f75666163747572696e67000000000000000000000000000000000000000000006020830152604082019050919050565b6000612a06601d836130b4565b91507f4472756720686173206e6f74206265656e2073686970706564207965740000006000830152602082019050919050565b6000612a466033836130b4565b91507f4f6e6c7920617070726f766564206d616e756661637475726572732063616e2060008301527f706572666f726d207468697320616374696f6e000000000000000000000000006020830152604082019050919050565b6000612aac6014836130b4565b91507f44727567206973206f7574206f662073746f636b0000000000000000000000006000830152602082019050919050565b6000612aec6022836130b4565b91507f44727567206973206e6f7420617661696c61626c6520666f722070757263686160008301527f73650000000000000000000000000000000000000000000000000000000000006020830152604082019050919050565b6000606083016000830151612b5d6000860182612c45565b5060208301518482036020860152612b7582826126bd565b9150506040830151612b8a6040860182612681565b508091505092915050565b600061010083016000830151612bae6000860182612c45565b506020830151612bc16020860182612c45565b5060408301518482036040860152612bd982826126bd565b9150506060830151612bee6060860182612c45565b506080830151612c0160808601826125c8565b5060a0830151612c1460a08601826125c8565b5060c0830151612c2760c08601826125c8565b5060e0830151612c3a60e086018261269f565b508091505092915050565b612c4e81613167565b82525050565b612c5d81613167565b82525050565b612c74612c6f82613167565b6132aa565b82525050565b6000612c868287612c63565b602082019150612c9682866125e6565b601482019150612ca68285612c63565b602082019150612cb6828461266a565b60208201915081905095945050505050565b6000602082019050612cdd60008301846125d7565b92915050565b60006020820190508181036000830152612cfd81846125fd565b905092915050565b6000602082019050612d1a600083018461265b565b92915050565b60006040820190508181036000830152612d3a81856126f6565b9050612d496020830184612c54565b9392505050565b60006020820190508181036000830152612d698161272f565b9050919050565b60006020820190508181036000830152612d8981612795565b9050919050565b60006020820190508181036000830152612da9816127fb565b9050919050565b60006020820190508181036000830152612dc981612861565b9050919050565b60006020820190508181036000830152612de9816128c7565b9050919050565b60006020820190508181036000830152612e098161292d565b9050919050565b60006020820190508181036000830152612e2981612993565b9050919050565b60006020820190508181036000830152612e49816129f9565b9050919050565b60006020820190508181036000830152612e6981612a39565b9050919050565b60006020820190508181036000830152612e8981612a9f565b9050919050565b60006020820190508181036000830152612ea981612adf565b9050919050565b60006020820190508181036000830152612eca8184612b45565b905092915050565b60006020820190508181036000830152612eec8184612b95565b905092915050565b6000602082019050612f096000830184612c54565b92915050565b6000606082019050612f246000830186612c54565b8181036020830152612f3681856126f6565b9050612f456040830184612690565b949350505050565b600061010082019050612f63600083018b612c54565b612f70602083018a612c54565b8181036040830152612f8281896126f6565b9050612f916060830188612c54565b612f9e60808301876125d7565b612fab60a08301866125d7565b612fb860c08301856125d7565b612fc560e08301846126ae565b9998505050505050505050565b6000604051905081810181811067ffffffffffffffff82111715612ff957612ff8613341565b5b8060405250919050565b600067ffffffffffffffff82111561301e5761301d613341565b5b602082029050602081019050919050565b600067ffffffffffffffff82111561304a57613049613341565b5b601f19601f8301169050602081019050919050565b6000819050602082019050919050565b600081519050919050565b600081519050919050565b6000602082019050919050565b600082825260208201905092915050565b600082825260208201905092915050565b600082825260208201905092915050565b60006130d082613167565b91506130db83613167565b9250828210156130ee576130ed6132b4565b5b828203905092915050565b600061310482613147565b9050919050565b60008115159050919050565b6000819050919050565b600081905061312f8261338e565b919050565b6000819050613142826133a2565b919050565b600073ffffffffffffffffffffffffffffffffffffffff82169050919050565b6000819050919050565b600061317c82613121565b9050919050565b600061318e82613134565b9050919050565b82818337600083830152505050565b60005b838110156131c25780820151818401526020810190506131a7565b838111156131d1576000848401525b50505050565b60006131e282613167565b915060008214156131f6576131f56132b4565b5b600182039050919050565b6000600282049050600182168061321957607f821691505b6020821081141561322d5761322c613312565b5b50919050565b600061323e82613167565b91507fffffffffffffffffffffffffffffffffffffffffffffffffffffffffffffffff821415613271576132706132b4565b5b600182019050919050565b600061328782613298565b9050919050565b6000819050919050565b60006132a382613381565b9050919050565b6000819050919050565b7f4e487b7100000000000000000000000000000000000000000000000000000000600052601160045260246000fd5b7f4e487b7100000000000000000000000000000000000000000000000000000000600052602160045260246000fd5b7f4e487b7100000000000000000000000000000000000000000000000000000000600052602260045260246000fd5b7f4e487b7100000000000000000000000000000000000000000000000000000000600052604160045260246000fd5b6000601f19601f8301169050919050565b60008160601b9050919050565b6002811061339f5761339e6132e3565b5b50565b600381106133b3576133b26132e3565b5b50565b6133bf816130f9565b81146133ca57600080fd5b50565b6133d681613167565b81146133e157600080fd5b5056fea2646970667358221220fa862d8c1a51cc6c92c02c6986530e6f29fa25fc0ca9e516009ab3629213fead64736f6c63430008000033",
  "linkReferences": {},
  "deployedLinkReferences": {}
}